{
  "_format": "hh-sol-artifact-1",
  "contractName": "ZombieFeeding",
  "sourceName": "contracts/zombiefeeding.sol",
  "abi": [
    {
      "anonymous": false,
      "inputs": [
        {
          "indexed": false,
          "internalType": "uint256",
          "name": "zombieId",
          "type": "uint256"
        },
        {
          "indexed": false,
          "internalType": "string",
          "name": "name",
          "type": "string"
        },
        {
          "indexed": false,
          "internalType": "uint256",
          "name": "dna",
          "type": "uint256"
        }
      ],
      "name": "NewZombie",
      "type": "event"
    },
    {
      "anonymous": false,
      "inputs": [
        {
          "indexed": true,
          "internalType": "address",
          "name": "previousOwner",
          "type": "address"
        },
        {
          "indexed": true,
          "internalType": "address",
          "name": "newOwner",
          "type": "address"
        }
      ],
      "name": "OwnershipTransferred",
      "type": "event"
    },
    {
      "inputs": [
        {
          "internalType": "string",
          "name": "_name",
          "type": "string"
        }
      ],
      "name": "createRandomZombie",
      "outputs": [],
      "stateMutability": "nonpayable",
      "type": "function"
    },
    {
      "inputs": [
        {
          "internalType": "uint256",
          "name": "_zombieId",
          "type": "uint256"
        },
        {
          "internalType": "uint256",
          "name": "_targetDna",
          "type": "uint256"
        },
        {
          "internalType": "string",
          "name": "_species",
          "type": "string"
        }
      ],
      "name": "feedAndMultiply",
      "outputs": [],
      "stateMutability": "nonpayable",
      "type": "function"
    },
    {
      "inputs": [
        {
          "internalType": "uint256",
          "name": "_zombieId",
          "type": "uint256"
        },
        {
          "internalType": "uint256",
          "name": "_kittyId",
          "type": "uint256"
        }
      ],
      "name": "feedOnKitty",
      "outputs": [],
      "stateMutability": "nonpayable",
      "type": "function"
    },
    {
      "inputs": [],
      "name": "isOwner",
      "outputs": [
        {
          "internalType": "bool",
          "name": "",
          "type": "bool"
        }
      ],
      "stateMutability": "view",
      "type": "function"
    },
    {
      "inputs": [],
      "name": "owner",
      "outputs": [
        {
          "internalType": "address",
          "name": "",
          "type": "address"
        }
      ],
      "stateMutability": "view",
      "type": "function"
    },
    {
      "inputs": [],
      "name": "renounceOwnership",
      "outputs": [],
      "stateMutability": "nonpayable",
      "type": "function"
    },
    {
      "inputs": [
        {
          "internalType": "address",
          "name": "_address",
          "type": "address"
        }
      ],
      "name": "setKittyContractAddress",
      "outputs": [],
      "stateMutability": "nonpayable",
      "type": "function"
    },
    {
      "inputs": [
        {
          "internalType": "address",
          "name": "newOwner",
          "type": "address"
        }
      ],
      "name": "transferOwnership",
      "outputs": [],
      "stateMutability": "nonpayable",
      "type": "function"
    },
    {
      "inputs": [
        {
          "internalType": "uint256",
          "name": "",
          "type": "uint256"
        }
      ],
      "name": "zombieToOwner",
      "outputs": [
        {
          "internalType": "address",
          "name": "",
          "type": "address"
        }
      ],
      "stateMutability": "view",
      "type": "function"
    },
    {
      "inputs": [
        {
          "internalType": "uint256",
          "name": "",
          "type": "uint256"
        }
      ],
      "name": "zombies",
      "outputs": [
        {
          "internalType": "string",
          "name": "name",
          "type": "string"
        },
        {
          "internalType": "uint256",
          "name": "dna",
          "type": "uint256"
        },
        {
          "internalType": "uint32",
          "name": "level",
          "type": "uint32"
        },
        {
          "internalType": "uint32",
          "name": "readyTime",
          "type": "uint32"
        },
        {
          "internalType": "uint16",
          "name": "winCount",
          "type": "uint16"
        },
        {
          "internalType": "uint16",
          "name": "lossCount",
          "type": "uint16"
        }
      ],
      "stateMutability": "view",
      "type": "function"
    }
  ],
  "bytecode": "0x6080604052601060018190556200001890600a6200018a565b600255620151806003553480156200002f57600080fd5b50600080546001600160a01b0319163390811782556040519091907f8be0079c531659141344cd1fd0a4f28419497f9722a3daafe3b4186f6b6457e0908290a36200019f565b634e487b7160e01b600052601160045260246000fd5b600181815b80851115620000cc578160001904821115620000b057620000b062000075565b80851615620000be57918102915b93841c939080029062000090565b509250929050565b600082620000e55750600162000184565b81620000f45750600062000184565b81600181146200010d5760028114620001185762000138565b600191505062000184565b60ff8411156200012c576200012c62000075565b50506001821b62000184565b5060208310610133831016604e8410600b84101617156200015d575081810a62000184565b6200016983836200008b565b806000190482111562000180576200018062000075565b0290505b92915050565b6000620001988383620000d4565b9392505050565b61108e80620001af6000396000f3fe608060405234801561001057600080fd5b50600436106100be5760003560e01c8063715018a6116100765780638da5cb5b1161005b5780638da5cb5b146101a25780638f32d59b146101c0578063f2fde38b146101eb57600080fd5b8063715018a6146101875780637bff0a011461018f57600080fd5b8063528b7b8f116100a7578063528b7b8f146101065780635f4623f1146101615780636b0bfc801461017457600080fd5b806317a7f4cc146100c35780632052465e146100d8575b600080fd5b6100d66100d1366004610a2e565b6101fe565b005b6100eb6100e6366004610a50565b6102e7565b6040516100fd96959493929190610ad7565b60405180910390f35b61013c610114366004610a50565b60056020526000908152604090205473ffffffffffffffffffffffffffffffffffffffff1681565b60405173ffffffffffffffffffffffffffffffffffffffff90911681526020016100fd565b6100d661016f366004610b22565b6103dd565b6100d6610182366004610c32565b610448565b6100d66105b1565b6100d661019d366004610c82565b610644565b60005473ffffffffffffffffffffffffffffffffffffffff1661013c565b60005473ffffffffffffffffffffffffffffffffffffffff16331460405190151581526020016100fd565b6100d66101f9366004610b22565b610690565b6007546040517fe98b7f4d0000000000000000000000000000000000000000000000000000000081526004810183905260009173ffffffffffffffffffffffffffffffffffffffff169063e98b7f4d9060240161014060405180830381865afa15801561026f573d6000803e3d6000fd5b505050506040513d601f19601f820116820180604052508101906102939190610cd4565b60408051808201909152600581527f6b697474790000000000000000000000000000000000000000000000000000006020820152909a506102e299508c98508a97509550610448945050505050565b505050565b600481815481106102f757600080fd5b906000526020600020906003020160009150905080600001805461031a90610d56565b80601f016020809104026020016040519081016040528092919081815260200182805461034690610d56565b80156103935780601f1061036857610100808354040283529160200191610393565b820191906000526020600020905b81548152906001019060200180831161037657829003601f168201915b505050600184015460029094015492939263ffffffff8082169350640100000000820416915061ffff6801000000000000000082048116916a010000000000000000000090041686565b60005473ffffffffffffffffffffffffffffffffffffffff16331461040157600080fd5b600780547fffffffffffffffffffffffff00000000000000000000000000000000000000001673ffffffffffffffffffffffffffffffffffffffff92909216919091179055565b600083815260056020526040902054839073ffffffffffffffffffffffffffffffffffffffff16331461047a57600080fd5b60006004858154811061048f5761048f610da9565b90600052602060002090600302019050600254846104ad9190610e07565b9350600060028583600101546104c39190610e4a565b6104cd9190610e5d565b6040517f6b69747479000000000000000000000000000000000000000000000000000000602082015290915060250160405160208183030381529060405280519060200120846040516020016105239190610e71565b604051602081830303815290604052805190602001200361056157610549606482610e07565b6105539082610e8d565b61055e906063610e4a565b90505b6105a06040518060400160405280600681526020017f4e6f4e616d650000000000000000000000000000000000000000000000000000815250826106c0565b6105a9826108e3565b505050505050565b60005473ffffffffffffffffffffffffffffffffffffffff1633146105d557600080fd5b6000805460405173ffffffffffffffffffffffffffffffffffffffff909116907f8be0079c531659141344cd1fd0a4f28419497f9722a3daafe3b4186f6b6457e0908390a3600080547fffffffffffffffffffffffff0000000000000000000000000000000000000000169055565b336000908152600660205260409020541561065e57600080fd5b600061066982610915565b9050610676606482610e07565b6106809082610e8d565b905061068c82826106c0565b5050565b60005473ffffffffffffffffffffffffffffffffffffffff1633146106b457600080fd5b6106bd81610959565b50565b6000600354426106d09190610e4a565b6040805160c08101825285815260208101859052600191810182905263ffffffff8316606082015260006080820181905260a08201819052600480549384018155905280519293509182916003027f8a35acfbc15ff81a39ae7d344fd709f28e8600b4aa8c65c6b64bfe7fe36bd19b0190819061074d9082610ee6565b5060208201516001808301919091556040830151600290920180546060850151608086015160a09096015161ffff9081166a0100000000000000000000027fffffffffffffffffffffffffffffffffffffffff0000ffffffffffffffffffff919097166801000000000000000002167fffffffffffffffffffffffffffffffffffffffff00000000ffffffffffffffff63ffffffff928316640100000000027fffffffffffffffffffffffffffffffffffffffffffffffff0000000000000000909416929096169190911791909117939093169290921792909217905560045460009161083991610e8d565b600081815260056020908152604080832080547fffffffffffffffffffffffff000000000000000000000000000000000000000016339081179091558352600690915290205490915061088d906001610a06565b336000908152600660205260409081902091909155517f88f026aacbbecc90c18411df4b1185fd8d9be2470f1962f192bf84a27d0704b7906108d490839088908890611000565b60405180910390a15050505050565b6003546108f09042610e4a565b8160020160046101000a81548163ffffffff021916908363ffffffff16021790555050565b600080826040516020016109299190610e71565b6040516020818303038152906040528051906020012060001c9050600254816109529190610e07565b9392505050565b73ffffffffffffffffffffffffffffffffffffffff811661097957600080fd5b6000805460405173ffffffffffffffffffffffffffffffffffffffff808516939216917f8be0079c531659141344cd1fd0a4f28419497f9722a3daafe3b4186f6b6457e091a3600080547fffffffffffffffffffffffff00000000000000000000000000000000000000001673ffffffffffffffffffffffffffffffffffffffff92909216919091179055565b600080610a138385610e4a565b905083811015610a2557610a25611029565b90505b92915050565b60008060408385031215610a4157600080fd5b50508035926020909101359150565b600060208284031215610a6257600080fd5b5035919050565b60005b83811015610a84578181015183820152602001610a6c565b50506000910152565b60008151808452610aa5816020860160208601610a69565b601f017fffffffffffffffffffffffffffffffffffffffffffffffffffffffffffffffe0169290920160200192915050565b60c081526000610aea60c0830189610a8d565b60208301979097525063ffffffff948516604082015292909316606083015261ffff908116608083015290911660a090910152919050565b600060208284031215610b3457600080fd5b813573ffffffffffffffffffffffffffffffffffffffff81168114610a2557600080fd5b7f4e487b7100000000000000000000000000000000000000000000000000000000600052604160045260246000fd5b600082601f830112610b9857600080fd5b813567ffffffffffffffff80821115610bb357610bb3610b58565b604051601f83017fffffffffffffffffffffffffffffffffffffffffffffffffffffffffffffffe0908116603f01168101908282118183101715610bf957610bf9610b58565b81604052838152866020858801011115610c1257600080fd5b836020870160208301376000602085830101528094505050505092915050565b600080600060608486031215610c4757600080fd5b8335925060208401359150604084013567ffffffffffffffff811115610c6c57600080fd5b610c7886828701610b87565b9150509250925092565b600060208284031215610c9457600080fd5b813567ffffffffffffffff811115610cab57600080fd5b610cb784828501610b87565b949350505050565b80518015158114610ccf57600080fd5b919050565b6000806000806000806000806000806101408b8d031215610cf457600080fd5b610cfd8b610cbf565b9950610d0b60208c01610cbf565b985060408b0151975060608b0151965060808b0151955060a08b0151945060c08b0151935060e08b015192506101008b015191506101208b015190509295989b9194979a5092959850565b600181811c90821680610d6a57607f821691505b602082108103610da3577f4e487b7100000000000000000000000000000000000000000000000000000000600052602260045260246000fd5b50919050565b7f4e487b7100000000000000000000000000000000000000000000000000000000600052603260045260246000fd5b7f4e487b7100000000000000000000000000000000000000000000000000000000600052601260045260246000fd5b600082610e1657610e16610dd8565b500690565b7f4e487b7100000000000000000000000000000000000000000000000000000000600052601160045260246000fd5b80820180821115610a2857610a28610e1b565b600082610e6c57610e6c610dd8565b500490565b60008251610e83818460208701610a69565b9190910192915050565b81810381811115610a2857610a28610e1b565b601f8211156102e257600081815260208120601f850160051c81016020861015610ec75750805b601f850160051c820191505b818110156105a957828155600101610ed3565b815167ffffffffffffffff811115610f0057610f00610b58565b610f1481610f0e8454610d56565b84610ea0565b602080601f831160018114610f675760008415610f315750858301515b7fffffffffffffffffffffffffffffffffffffffffffffffffffffffffffffffff600386901b1c1916600185901b1785556105a9565b6000858152602081207fffffffffffffffffffffffffffffffffffffffffffffffffffffffffffffffe08616915b82811015610fb457888601518255948401946001909101908401610f95565b5085821015610ff057878501517fffffffffffffffffffffffffffffffffffffffffffffffffffffffffffffffff600388901b60f8161c191681555b5050505050600190811b01905550565b8381526060602082015260006110196060830185610a8d565b9050826040830152949350505050565b7f4e487b7100000000000000000000000000000000000000000000000000000000600052600160045260246000fdfea26469706673582212203aa78ee5464cf2586dcb22a318d28d4b00765750e312f1197e83ed3f4883c88464736f6c63430008120033",
  "linkReferences": {},
  "deployedLinkReferences": {}
}