{
  "_format": "hh-sol-artifact-1",
  "contractName": "ZombieHelper",
  "sourceName": "contracts/zombieHelper.sol",
  "abi": [
    {
      "anonymous": false,
      "inputs": [
        {
          "indexed": false,
          "internalType": "uint256",
          "name": "zombieId",
          "type": "uint256"
        },
        {
          "indexed": false,
          "internalType": "string",
          "name": "name",
          "type": "string"
        },
        {
          "indexed": false,
          "internalType": "uint256",
          "name": "dna",
          "type": "uint256"
        }
      ],
      "name": "NewZombie",
      "type": "event"
    },
    {
      "anonymous": false,
      "inputs": [
        {
          "indexed": true,
          "internalType": "address",
          "name": "previousOwner",
          "type": "address"
        },
        {
          "indexed": true,
          "internalType": "address",
          "name": "newOwner",
          "type": "address"
        }
      ],
      "name": "OwnershipTransferred",
      "type": "event"
    },
    {
      "inputs": [
        {
          "internalType": "uint256",
          "name": "_zombieId",
          "type": "uint256"
        },
        {
          "internalType": "uint256",
          "name": "_newDna",
          "type": "uint256"
        }
      ],
      "name": "changeDna",
      "outputs": [],
      "stateMutability": "nonpayable",
      "type": "function"
    },
    {
      "inputs": [
        {
          "internalType": "uint256",
          "name": "_zombieId",
          "type": "uint256"
        },
        {
          "internalType": "string",
          "name": "_newName",
          "type": "string"
        }
      ],
      "name": "changeName",
      "outputs": [],
      "stateMutability": "nonpayable",
      "type": "function"
    },
    {
      "inputs": [
        {
          "internalType": "string",
          "name": "_name",
          "type": "string"
        }
      ],
      "name": "createRandomZombie",
      "outputs": [],
      "stateMutability": "nonpayable",
      "type": "function"
    },
    {
      "inputs": [
        {
          "internalType": "uint256",
          "name": "_zombieId",
          "type": "uint256"
        },
        {
          "internalType": "uint256",
          "name": "_targetDna",
          "type": "uint256"
        },
        {
          "internalType": "string",
          "name": "_species",
          "type": "string"
        }
      ],
      "name": "feedAndMultiply",
      "outputs": [],
      "stateMutability": "nonpayable",
      "type": "function"
    },
    {
      "inputs": [
        {
          "internalType": "uint256",
          "name": "_zombieId",
          "type": "uint256"
        },
        {
          "internalType": "uint256",
          "name": "_kittyId",
          "type": "uint256"
        }
      ],
      "name": "feedOnKitty",
      "outputs": [],
      "stateMutability": "nonpayable",
      "type": "function"
    },
    {
      "inputs": [
        {
          "internalType": "address",
          "name": "_owner",
          "type": "address"
        }
      ],
      "name": "getZombiesByOwner",
      "outputs": [
        {
          "internalType": "uint256[]",
          "name": "",
          "type": "uint256[]"
        }
      ],
      "stateMutability": "view",
      "type": "function"
    },
    {
      "inputs": [],
      "name": "isOwner",
      "outputs": [
        {
          "internalType": "bool",
          "name": "",
          "type": "bool"
        }
      ],
      "stateMutability": "view",
      "type": "function"
    },
    {
      "inputs": [
        {
          "internalType": "uint256",
          "name": "_zombieId",
          "type": "uint256"
        }
      ],
      "name": "levelUp",
      "outputs": [],
      "stateMutability": "payable",
      "type": "function"
    },
    {
      "inputs": [],
      "name": "owner",
      "outputs": [
        {
          "internalType": "address",
          "name": "",
          "type": "address"
        }
      ],
      "stateMutability": "view",
      "type": "function"
    },
    {
      "inputs": [],
      "name": "renounceOwnership",
      "outputs": [],
      "stateMutability": "nonpayable",
      "type": "function"
    },
    {
      "inputs": [
        {
          "internalType": "address",
          "name": "_address",
          "type": "address"
        }
      ],
      "name": "setKittyContractAddress",
      "outputs": [],
      "stateMutability": "nonpayable",
      "type": "function"
    },
    {
      "inputs": [
        {
          "internalType": "uint256",
          "name": "_fee",
          "type": "uint256"
        }
      ],
      "name": "setLevelUpFee",
      "outputs": [],
      "stateMutability": "nonpayable",
      "type": "function"
    },
    {
      "inputs": [
        {
          "internalType": "address",
          "name": "newOwner",
          "type": "address"
        }
      ],
      "name": "transferOwnership",
      "outputs": [],
      "stateMutability": "nonpayable",
      "type": "function"
    },
    {
      "inputs": [],
      "name": "withdraw",
      "outputs": [],
      "stateMutability": "nonpayable",
      "type": "function"
    },
    {
      "inputs": [
        {
          "internalType": "uint256",
          "name": "",
          "type": "uint256"
        }
      ],
      "name": "zombieToOwner",
      "outputs": [
        {
          "internalType": "address",
          "name": "",
          "type": "address"
        }
      ],
      "stateMutability": "view",
      "type": "function"
    },
    {
      "inputs": [
        {
          "internalType": "uint256",
          "name": "",
          "type": "uint256"
        }
      ],
      "name": "zombies",
      "outputs": [
        {
          "internalType": "string",
          "name": "name",
          "type": "string"
        },
        {
          "internalType": "uint256",
          "name": "dna",
          "type": "uint256"
        },
        {
          "internalType": "uint32",
          "name": "level",
          "type": "uint32"
        },
        {
          "internalType": "uint32",
          "name": "readyTime",
          "type": "uint32"
        },
        {
          "internalType": "uint16",
          "name": "winCount",
          "type": "uint16"
        },
        {
          "internalType": "uint16",
          "name": "lossCount",
          "type": "uint16"
        }
      ],
      "stateMutability": "view",
      "type": "function"
    }
  ],
  "bytecode": "0x6080604052601060018190556200001890600a62000195565b6002556201518060035566038d7ea4c680006008553480156200003a57600080fd5b50600080546001600160a01b0319163390811782556040519091907f8be0079c531659141344cd1fd0a4f28419497f9722a3daafe3b4186f6b6457e0908290a3620001aa565b634e487b7160e01b600052601160045260246000fd5b600181815b80851115620000d7578160001904821115620000bb57620000bb62000080565b80851615620000c957918102915b93841c93908002906200009b565b509250929050565b600082620000f0575060016200018f565b81620000ff575060006200018f565b8160018114620001185760028114620001235762000143565b60019150506200018f565b60ff84111562000137576200013762000080565b50506001821b6200018f565b5060208310610133831016604e8410600b841016171562000168575081810a6200018f565b62000174838362000096565b80600019048211156200018b576200018b62000080565b0290505b92915050565b6000620001a38383620000df565b9392505050565b6117ab80620001ba6000396000f3fe6080604052600436106100f35760003560e01c80636b0bfc801161008a5780638f32d59b116100595780638f32d59b146102d2578063c39cbef11461030a578063ccf670f81461032a578063f2fde38b1461034a57600080fd5b80636b0bfc8014610252578063715018a6146102725780637bff0a01146102875780638da5cb5b146102a757600080fd5b80634412e104116100c65780634412e1041461017d578063528b7b8f146101aa5780635f4623f1146102125780635faf28801461023257600080fd5b80630ce90ec2146100f857806317a7f4cc1461010d5780632052465e1461012d5780633ccfd60b14610168575b600080fd5b61010b610106366004610f15565b61036a565b005b34801561011957600080fd5b5061010b610128366004610f2e565b6103d1565b34801561013957600080fd5b5061014d610148366004610f15565b6104ba565b60405161015f96959493929190610fbe565b60405180910390f35b34801561017457600080fd5b5061010b6105b0565b34801561018957600080fd5b5061019d610198366004611009565b610606565b60405161015f919061103f565b3480156101b657600080fd5b506101ed6101c5366004610f15565b60056020526000908152604090205473ffffffffffffffffffffffffffffffffffffffff1681565b60405173ffffffffffffffffffffffffffffffffffffffff909116815260200161015f565b34801561021e57600080fd5b5061010b61022d366004611009565b6106f7565b34801561023e57600080fd5b5061010b61024d366004610f2e565b610762565b34801561025e57600080fd5b5061010b61026d36600461115d565b610830565b34801561027e57600080fd5b5061010b610999565b34801561029357600080fd5b5061010b6102a23660046111ad565b610a2c565b3480156102b357600080fd5b5060005473ffffffffffffffffffffffffffffffffffffffff166101ed565b3480156102de57600080fd5b5060005473ffffffffffffffffffffffffffffffffffffffff163314604051901515815260200161015f565b34801561031657600080fd5b5061010b6103253660046111ea565b610a74565b34801561033657600080fd5b5061010b610345366004610f15565b610b4e565b34801561035657600080fd5b5061010b610365366004611009565b610b77565b600854341461037857600080fd5b6004818154811061038b5761038b611266565b600091825260208220600260039092020101805463ffffffff16916103af836112c4565b91906101000a81548163ffffffff021916908363ffffffff1602179055505050565b6007546040517fe98b7f4d0000000000000000000000000000000000000000000000000000000081526004810183905260009173ffffffffffffffffffffffffffffffffffffffff169063e98b7f4d9060240161014060405180830381865afa158015610442573d6000803e3d6000fd5b505050506040513d601f19601f8201168201806040525081019061046691906112fc565b60408051808201909152600581527f6b697474790000000000000000000000000000000000000000000000000000006020820152909a506104b599508c98508a97509550610830945050505050565b505050565b600481815481106104ca57600080fd5b90600052602060002090600302016000915090508060000180546104ed9061137e565b80601f01602080910402602001604051908101604052809291908181526020018280546105199061137e565b80156105665780601f1061053b57610100808354040283529160200191610566565b820191906000526020600020905b81548152906001019060200180831161054957829003601f168201915b505050600184015460029094015492939263ffffffff8082169350640100000000820416915061ffff6801000000000000000082048116916a010000000000000000000090041686565b60005473ffffffffffffffffffffffffffffffffffffffff1633146105d457600080fd5b604051339081904780156108fc02916000818181858888f19350505050158015610602573d6000803e3d6000fd5b5050565b73ffffffffffffffffffffffffffffffffffffffff81166000908152600660205260408120546060919067ffffffffffffffff81111561064857610648611083565b604051908082528060200260200182016040528015610671578160200160208202803683370190505b5090506000805b6004548110156106ee5760008181526005602052604090205473ffffffffffffffffffffffffffffffffffffffff8087169116036106dc57808383815181106106c3576106c3611266565b6020908102919091010152816106d8816113d1565b9250505b806106e6816113d1565b915050610678565b50909392505050565b60005473ffffffffffffffffffffffffffffffffffffffff16331461071b57600080fd5b600780547fffffffffffffffffffffffff00000000000000000000000000000000000000001673ffffffffffffffffffffffffffffffffffffffff92909216919091179055565b601482816004828154811061077957610779611266565b600091825260209091206002600390920201015463ffffffff16101561079e57600080fd5b600084815260056020526040902054849073ffffffffffffffffffffffffffffffffffffffff1633146107d057600080fd5b60008581526005602052604090205473ffffffffffffffffffffffffffffffffffffffff16331461080057600080fd5b836004868154811061081457610814611266565b9060005260206000209060030201600101819055505050505050565b600083815260056020526040902054839073ffffffffffffffffffffffffffffffffffffffff16331461086257600080fd5b60006004858154811061087757610877611266565b90600052602060002090600302019050600254846108959190611438565b9350600060028583600101546108ab919061144c565b6108b5919061145f565b6040517f6b697474790000000000000000000000000000000000000000000000000000006020820152909150602501604051602081830303815290604052805190602001208460405160200161090b9190611473565b604051602081830303815290604052805190602001200361094957610931606482611438565b61093b908261148f565b61094690606361144c565b90505b6109886040518060400160405280600681526020017f4e6f4e616d65000000000000000000000000000000000000000000000000000081525082610ba7565b61099182610dca565b505050505050565b60005473ffffffffffffffffffffffffffffffffffffffff1633146109bd57600080fd5b6000805460405173ffffffffffffffffffffffffffffffffffffffff909116907f8be0079c531659141344cd1fd0a4f28419497f9722a3daafe3b4186f6b6457e0908390a3600080547fffffffffffffffffffffffff0000000000000000000000000000000000000000169055565b3360009081526006602052604090205415610a4657600080fd5b6000610a5182610dfc565b9050610a5e606482611438565b610a68908261148f565b90506106028282610ba7565b6002838160048281548110610a8b57610a8b611266565b600091825260209091206002600390920201015463ffffffff161015610ab057600080fd5b600085815260056020526040902054859073ffffffffffffffffffffffffffffffffffffffff163314610ae257600080fd5b60008681526005602052604090205473ffffffffffffffffffffffffffffffffffffffff163314610b1257600080fd5b848460048881548110610b2757610b27611266565b90600052602060002090600302016000019182610b459291906114e8565b50505050505050565b60005473ffffffffffffffffffffffffffffffffffffffff163314610b7257600080fd5b600855565b60005473ffffffffffffffffffffffffffffffffffffffff163314610b9b57600080fd5b610ba481610e40565b50565b600060035442610bb7919061144c565b6040805160c08101825285815260208101859052600191810182905263ffffffff8316606082015260006080820181905260a08201819052600480549384018155905280519293509182916003027f8a35acfbc15ff81a39ae7d344fd709f28e8600b4aa8c65c6b64bfe7fe36bd19b01908190610c349082611603565b5060208201516001808301919091556040830151600290920180546060850151608086015160a09096015161ffff9081166a0100000000000000000000027fffffffffffffffffffffffffffffffffffffffff0000ffffffffffffffffffff919097166801000000000000000002167fffffffffffffffffffffffffffffffffffffffff00000000ffffffffffffffff63ffffffff928316640100000000027fffffffffffffffffffffffffffffffffffffffffffffffff00000000000000009094169290961691909117919091179390931692909217929092179055600454600091610d209161148f565b600081815260056020908152604080832080547fffffffffffffffffffffffff0000000000000000000000000000000000000000163390811790915583526006909152902054909150610d74906001610eed565b336000908152600660205260409081902091909155517f88f026aacbbecc90c18411df4b1185fd8d9be2470f1962f192bf84a27d0704b790610dbb9083908890889061171d565b60405180910390a15050505050565b600354610dd7904261144c565b8160020160046101000a81548163ffffffff021916908363ffffffff16021790555050565b60008082604051602001610e109190611473565b6040516020818303038152906040528051906020012060001c905060025481610e399190611438565b9392505050565b73ffffffffffffffffffffffffffffffffffffffff8116610e6057600080fd5b6000805460405173ffffffffffffffffffffffffffffffffffffffff808516939216917f8be0079c531659141344cd1fd0a4f28419497f9722a3daafe3b4186f6b6457e091a3600080547fffffffffffffffffffffffff00000000000000000000000000000000000000001673ffffffffffffffffffffffffffffffffffffffff92909216919091179055565b600080610efa838561144c565b905083811015610f0c57610f0c611746565b90505b92915050565b600060208284031215610f2757600080fd5b5035919050565b60008060408385031215610f4157600080fd5b50508035926020909101359150565b60005b83811015610f6b578181015183820152602001610f53565b50506000910152565b60008151808452610f8c816020860160208601610f50565b601f017fffffffffffffffffffffffffffffffffffffffffffffffffffffffffffffffe0169290920160200192915050565b60c081526000610fd160c0830189610f74565b60208301979097525063ffffffff948516604082015292909316606083015261ffff908116608083015290911660a090910152919050565b60006020828403121561101b57600080fd5b813573ffffffffffffffffffffffffffffffffffffffff81168114610f0c57600080fd5b6020808252825182820181905260009190848201906040850190845b818110156110775783518352928401929184019160010161105b565b50909695505050505050565b7f4e487b7100000000000000000000000000000000000000000000000000000000600052604160045260246000fd5b600082601f8301126110c357600080fd5b813567ffffffffffffffff808211156110de576110de611083565b604051601f83017fffffffffffffffffffffffffffffffffffffffffffffffffffffffffffffffe0908116603f0116810190828211818310171561112457611124611083565b8160405283815286602085880101111561113d57600080fd5b836020870160208301376000602085830101528094505050505092915050565b60008060006060848603121561117257600080fd5b8335925060208401359150604084013567ffffffffffffffff81111561119757600080fd5b6111a3868287016110b2565b9150509250925092565b6000602082840312156111bf57600080fd5b813567ffffffffffffffff8111156111d657600080fd5b6111e2848285016110b2565b949350505050565b6000806000604084860312156111ff57600080fd5b83359250602084013567ffffffffffffffff8082111561121e57600080fd5b818601915086601f83011261123257600080fd5b81358181111561124157600080fd5b87602082850101111561125357600080fd5b6020830194508093505050509250925092565b7f4e487b7100000000000000000000000000000000000000000000000000000000600052603260045260246000fd5b7f4e487b7100000000000000000000000000000000000000000000000000000000600052601160045260246000fd5b600063ffffffff8083168181036112dd576112dd611295565b6001019392505050565b805180151581146112f757600080fd5b919050565b6000806000806000806000806000806101408b8d03121561131c57600080fd5b6113258b6112e7565b995061133360208c016112e7565b985060408b0151975060608b0151965060808b0151955060a08b0151945060c08b0151935060e08b015192506101008b015191506101208b015190509295989b9194979a5092959850565b600181811c9082168061139257607f821691505b6020821081036113cb577f4e487b7100000000000000000000000000000000000000000000000000000000600052602260045260246000fd5b50919050565b60007fffffffffffffffffffffffffffffffffffffffffffffffffffffffffffffffff820361140257611402611295565b5060010190565b7f4e487b7100000000000000000000000000000000000000000000000000000000600052601260045260246000fd5b60008261144757611447611409565b500690565b80820180821115610f0f57610f0f611295565b60008261146e5761146e611409565b500490565b60008251611485818460208701610f50565b9190910192915050565b81810381811115610f0f57610f0f611295565b601f8211156104b557600081815260208120601f850160051c810160208610156114c95750805b601f850160051c820191505b81811015610991578281556001016114d5565b67ffffffffffffffff83111561150057611500611083565b6115148361150e835461137e565b836114a2565b6000601f84116001811461156657600085156115305750838201355b7fffffffffffffffffffffffffffffffffffffffffffffffffffffffffffffffff600387901b1c1916600186901b1783556115fc565b6000838152602090207fffffffffffffffffffffffffffffffffffffffffffffffffffffffffffffffe0861690835b828110156115b55786850135825560209485019460019092019101611595565b50868210156115f0577fffffffffffffffffffffffffffffffffffffffffffffffffffffffffffffffff60f88860031b161c19848701351681555b505060018560011b0183555b5050505050565b815167ffffffffffffffff81111561161d5761161d611083565b6116318161162b845461137e565b846114a2565b602080601f831160018114611684576000841561164e5750858301515b7fffffffffffffffffffffffffffffffffffffffffffffffffffffffffffffffff600386901b1c1916600185901b178555610991565b6000858152602081207fffffffffffffffffffffffffffffffffffffffffffffffffffffffffffffffe08616915b828110156116d1578886015182559484019460019091019084016116b2565b508582101561170d57878501517fffffffffffffffffffffffffffffffffffffffffffffffffffffffffffffffff600388901b60f8161c191681555b5050505050600190811b01905550565b8381526060602082015260006117366060830185610f74565b9050826040830152949350505050565b7f4e487b7100000000000000000000000000000000000000000000000000000000600052600160045260246000fdfea26469706673582212205716f38133f30baf141e0ebfc9c56ee9e8eb07919633c0ae7e66993af8ac7fdd64736f6c63430008120033",
  "linkReferences": {},
  "deployedLinkReferences": {}
}