{
  "_format": "hh-sol-artifact-1",
  "contractName": "CryptoZombies",
  "sourceName": "contracts/CryptoZombies.sol",
  "abi": [
    {
      "anonymous": false,
      "inputs": [
        {
          "indexed": true,
          "internalType": "address",
          "name": "_owner",
          "type": "address"
        },
        {
          "indexed": true,
          "internalType": "address",
          "name": "_approved",
          "type": "address"
        },
        {
          "indexed": true,
          "internalType": "uint256",
          "name": "_tokenId",
          "type": "uint256"
        }
      ],
      "name": "Approval",
      "type": "event"
    },
    {
      "anonymous": false,
      "inputs": [
        {
          "indexed": false,
          "internalType": "uint256",
          "name": "zombieId",
          "type": "uint256"
        },
        {
          "indexed": false,
          "internalType": "string",
          "name": "name",
          "type": "string"
        },
        {
          "indexed": false,
          "internalType": "uint256",
          "name": "dna",
          "type": "uint256"
        }
      ],
      "name": "NewZombie",
      "type": "event"
    },
    {
      "anonymous": false,
      "inputs": [
        {
          "indexed": true,
          "internalType": "address",
          "name": "previousOwner",
          "type": "address"
        },
        {
          "indexed": true,
          "internalType": "address",
          "name": "newOwner",
          "type": "address"
        }
      ],
      "name": "OwnershipTransferred",
      "type": "event"
    },
    {
      "anonymous": false,
      "inputs": [
        {
          "indexed": true,
          "internalType": "address",
          "name": "_from",
          "type": "address"
        },
        {
          "indexed": true,
          "internalType": "address",
          "name": "_to",
          "type": "address"
        },
        {
          "indexed": true,
          "internalType": "uint256",
          "name": "_tokenId",
          "type": "uint256"
        }
      ],
      "name": "Transfer",
      "type": "event"
    },
    {
      "inputs": [
        {
          "internalType": "address",
          "name": "_approved",
          "type": "address"
        },
        {
          "internalType": "uint256",
          "name": "_tokenId",
          "type": "uint256"
        }
      ],
      "name": "approve",
      "outputs": [],
      "stateMutability": "payable",
      "type": "function"
    },
    {
      "inputs": [
        {
          "internalType": "uint256",
          "name": "_zombieId",
          "type": "uint256"
        },
        {
          "internalType": "uint256",
          "name": "_targetId",
          "type": "uint256"
        }
      ],
      "name": "attack",
      "outputs": [],
      "stateMutability": "nonpayable",
      "type": "function"
    },
    {
      "inputs": [
        {
          "internalType": "address",
          "name": "_owner",
          "type": "address"
        }
      ],
      "name": "balanceOf",
      "outputs": [
        {
          "internalType": "uint256",
          "name": "",
          "type": "uint256"
        }
      ],
      "stateMutability": "view",
      "type": "function"
    },
    {
      "inputs": [
        {
          "internalType": "uint256",
          "name": "_zombieId",
          "type": "uint256"
        },
        {
          "internalType": "uint256",
          "name": "_newDna",
          "type": "uint256"
        }
      ],
      "name": "changeDna",
      "outputs": [],
      "stateMutability": "nonpayable",
      "type": "function"
    },
    {
      "inputs": [
        {
          "internalType": "uint256",
          "name": "_zombieId",
          "type": "uint256"
        },
        {
          "internalType": "string",
          "name": "_newName",
          "type": "string"
        }
      ],
      "name": "changeName",
      "outputs": [],
      "stateMutability": "nonpayable",
      "type": "function"
    },
    {
      "inputs": [
        {
          "internalType": "string",
          "name": "_name",
          "type": "string"
        }
      ],
      "name": "createRandomZombie",
      "outputs": [],
      "stateMutability": "nonpayable",
      "type": "function"
    },
    {
      "inputs": [
        {
          "internalType": "uint256",
          "name": "_zombieId",
          "type": "uint256"
        },
        {
          "internalType": "uint256",
          "name": "_targetDna",
          "type": "uint256"
        },
        {
          "internalType": "string",
          "name": "_species",
          "type": "string"
        }
      ],
      "name": "feedAndMultiply",
      "outputs": [],
      "stateMutability": "nonpayable",
      "type": "function"
    },
    {
      "inputs": [
        {
          "internalType": "uint256",
          "name": "_zombieId",
          "type": "uint256"
        },
        {
          "internalType": "uint256",
          "name": "_kittyId",
          "type": "uint256"
        }
      ],
      "name": "feedOnKitty",
      "outputs": [],
      "stateMutability": "nonpayable",
      "type": "function"
    },
    {
      "inputs": [
        {
          "internalType": "address",
          "name": "_owner",
          "type": "address"
        }
      ],
      "name": "getZombiesByOwner",
      "outputs": [
        {
          "internalType": "uint256[]",
          "name": "",
          "type": "uint256[]"
        }
      ],
      "stateMutability": "view",
      "type": "function"
    },
    {
      "inputs": [],
      "name": "isOwner",
      "outputs": [
        {
          "internalType": "bool",
          "name": "",
          "type": "bool"
        }
      ],
      "stateMutability": "view",
      "type": "function"
    },
    {
      "inputs": [
        {
          "internalType": "uint256",
          "name": "_zombieId",
          "type": "uint256"
        }
      ],
      "name": "levelUp",
      "outputs": [],
      "stateMutability": "payable",
      "type": "function"
    },
    {
      "inputs": [],
      "name": "owner",
      "outputs": [
        {
          "internalType": "address",
          "name": "",
          "type": "address"
        }
      ],
      "stateMutability": "view",
      "type": "function"
    },
    {
      "inputs": [
        {
          "internalType": "uint256",
          "name": "_tokenId",
          "type": "uint256"
        }
      ],
      "name": "ownerOf",
      "outputs": [
        {
          "internalType": "address",
          "name": "",
          "type": "address"
        }
      ],
      "stateMutability": "view",
      "type": "function"
    },
    {
      "inputs": [],
      "name": "renounceOwnership",
      "outputs": [],
      "stateMutability": "nonpayable",
      "type": "function"
    },
    {
      "inputs": [
        {
          "internalType": "address",
          "name": "_address",
          "type": "address"
        }
      ],
      "name": "setKittyContractAddress",
      "outputs": [],
      "stateMutability": "nonpayable",
      "type": "function"
    },
    {
      "inputs": [
        {
          "internalType": "uint256",
          "name": "_fee",
          "type": "uint256"
        }
      ],
      "name": "setLevelUpFee",
      "outputs": [],
      "stateMutability": "nonpayable",
      "type": "function"
    },
    {
      "inputs": [
        {
          "internalType": "address",
          "name": "_from",
          "type": "address"
        },
        {
          "internalType": "address",
          "name": "_to",
          "type": "address"
        },
        {
          "internalType": "uint256",
          "name": "_tokenId",
          "type": "uint256"
        }
      ],
      "name": "transferFrom",
      "outputs": [],
      "stateMutability": "payable",
      "type": "function"
    },
    {
      "inputs": [
        {
          "internalType": "address",
          "name": "newOwner",
          "type": "address"
        }
      ],
      "name": "transferOwnership",
      "outputs": [],
      "stateMutability": "nonpayable",
      "type": "function"
    },
    {
      "inputs": [],
      "name": "withdraw",
      "outputs": [],
      "stateMutability": "nonpayable",
      "type": "function"
    },
    {
      "inputs": [
        {
          "internalType": "uint256",
          "name": "",
          "type": "uint256"
        }
      ],
      "name": "zombieToOwner",
      "outputs": [
        {
          "internalType": "address",
          "name": "",
          "type": "address"
        }
      ],
      "stateMutability": "view",
      "type": "function"
    },
    {
      "inputs": [
        {
          "internalType": "uint256",
          "name": "",
          "type": "uint256"
        }
      ],
      "name": "zombies",
      "outputs": [
        {
          "internalType": "string",
          "name": "name",
          "type": "string"
        },
        {
          "internalType": "uint256",
          "name": "dna",
          "type": "uint256"
        },
        {
          "internalType": "uint32",
          "name": "level",
          "type": "uint32"
        },
        {
          "internalType": "uint32",
          "name": "readyTime",
          "type": "uint32"
        },
        {
          "internalType": "uint16",
          "name": "winCount",
          "type": "uint16"
        },
        {
          "internalType": "uint16",
          "name": "lossCount",
          "type": "uint16"
        }
      ],
      "stateMutability": "view",
      "type": "function"
    }
  ],
  "bytecode": "0x6080604052601060018190556200001890600a6200019f565b6002556201518060035566038d7ea4c6800060085560006009556046600a553480156200004457600080fd5b50600080546001600160a01b0319163390811782556040519091907f8be0079c531659141344cd1fd0a4f28419497f9722a3daafe3b4186f6b6457e0908290a3620001b4565b634e487b7160e01b600052601160045260246000fd5b600181815b80851115620000e1578160001904821115620000c557620000c56200008a565b80851615620000d357918102915b93841c9390800290620000a5565b509250929050565b600082620000fa5750600162000199565b81620001095750600062000199565b81600181146200012257600281146200012d576200014d565b600191505062000199565b60ff8411156200014157620001416200008a565b50506001821b62000199565b5060208310610133831016604e8410600b841016171562000172575081810a62000199565b6200017e8383620000a0565b80600019048211156200019557620001956200008a565b0290505b92915050565b6000620001ad8383620000e9565b9392505050565b611e4c80620001c46000396000f3fe60806040526004361061016a5760003560e01c80636352211e116100cb5780638da5cb5b1161007f578063ccf670f811610059578063ccf670f81461045b578063e1fa76381461047b578063f2fde38b1461049b57600080fd5b80638da5cb5b146103d85780638f32d59b14610403578063c39cbef11461043b57600080fd5b806370a08231116100b057806370a0823114610352578063715018a6146103a35780637bff0a01146103b857600080fd5b80636352211e146102ef5780636b0bfc801461033257600080fd5b80633ccfd60b11610122578063528b7b8f11610107578063528b7b8f146102475780635f4623f1146102af5780635faf2880146102cf57600080fd5b80633ccfd60b146102055780634412e1041461021a57600080fd5b806317a7f4cc1161015357806317a7f4cc146101975780632052465e146101b757806323b872dd146101f257600080fd5b8063095ea7b31461016f5780630ce90ec214610184575b600080fd5b61018261017d366004611559565b6104bb565b005b610182610192366004611583565b61056c565b3480156101a357600080fd5b506101826101b236600461159c565b6105d3565b3480156101c357600080fd5b506101d76101d2366004611583565b6106bc565b6040516101e99695949392919061162c565b60405180910390f35b610182610200366004611677565b6107b2565b34801561021157600080fd5b5061018261081b565b34801561022657600080fd5b5061023a6102353660046116b3565b610871565b6040516101e991906116ce565b34801561025357600080fd5b5061028a610262366004611583565b60056020526000908152604090205473ffffffffffffffffffffffffffffffffffffffff1681565b60405173ffffffffffffffffffffffffffffffffffffffff90911681526020016101e9565b3480156102bb57600080fd5b506101826102ca3660046116b3565b610962565b3480156102db57600080fd5b506101826102ea36600461159c565b6109cd565b3480156102fb57600080fd5b5061028a61030a366004611583565b60009081526005602052604090205473ffffffffffffffffffffffffffffffffffffffff1690565b34801561033e57600080fd5b5061018261034d3660046117ec565b610a9b565b34801561035e57600080fd5b5061039561036d3660046116b3565b73ffffffffffffffffffffffffffffffffffffffff1660009081526006602052604090205490565b6040519081526020016101e9565b3480156103af57600080fd5b50610182610c04565b3480156103c457600080fd5b506101826103d336600461183c565b610c97565b3480156103e457600080fd5b5060005473ffffffffffffffffffffffffffffffffffffffff1661028a565b34801561040f57600080fd5b5060005473ffffffffffffffffffffffffffffffffffffffff16331460405190151581526020016101e9565b34801561044757600080fd5b50610182610456366004611879565b610cdf565b34801561046757600080fd5b50610182610476366004611583565b610db9565b34801561048757600080fd5b5061018261049636600461159c565b610de2565b3480156104a757600080fd5b506101826104b63660046116b3565b610ffb565b600081815260056020526040902054819073ffffffffffffffffffffffffffffffffffffffff1633146104ed57600080fd5b6000828152600b602052604080822080547fffffffffffffffffffffffff00000000000000000000000000000000000000001673ffffffffffffffffffffffffffffffffffffffff87169081179091559051849233917f8c5be1e5ebec7d5bd14f71427d1e84f3dd0314c0f7b2291e5b200ac8c7c3b9259190a4505050565b600854341461057a57600080fd5b6004818154811061058d5761058d6118f5565b600091825260208220600260039092020101805463ffffffff16916105b183611953565b91906101000a81548163ffffffff021916908363ffffffff1602179055505050565b6007546040517fe98b7f4d0000000000000000000000000000000000000000000000000000000081526004810183905260009173ffffffffffffffffffffffffffffffffffffffff169063e98b7f4d9060240161014060405180830381865afa158015610644573d6000803e3d6000fd5b505050506040513d601f19601f820116820180604052508101906106689190611986565b60408051808201909152600581527f6b697474790000000000000000000000000000000000000000000000000000006020820152909a506106b799508c98508a97509550610a9b945050505050565b505050565b600481815481106106cc57600080fd5b90600052602060002090600302016000915090508060000180546106ef90611a08565b80601f016020809104026020016040519081016040528092919081815260200182805461071b90611a08565b80156107685780601f1061073d57610100808354040283529160200191610768565b820191906000526020600020905b81548152906001019060200180831161074b57829003601f168201915b505050600184015460029094015492939263ffffffff8082169350640100000000820416915061ffff6801000000000000000082048116916a010000000000000000000090041686565b60008181526005602052604090205473ffffffffffffffffffffffffffffffffffffffff1633148061080757506000818152600b602052604090205473ffffffffffffffffffffffffffffffffffffffff1633145b61081057600080fd5b6106b783838361102b565b60005473ffffffffffffffffffffffffffffffffffffffff16331461083f57600080fd5b604051339081904780156108fc02916000818181858888f1935050505015801561086d573d6000803e3d6000fd5b5050565b73ffffffffffffffffffffffffffffffffffffffff81166000908152600660205260408120546060919067ffffffffffffffff8111156108b3576108b3611712565b6040519080825280602002602001820160405280156108dc578160200160208202803683370190505b5090506000805b6004548110156109595760008181526005602052604090205473ffffffffffffffffffffffffffffffffffffffff808716911603610947578083838151811061092e5761092e6118f5565b60209081029190910101528161094381611a5b565b9250505b8061095181611a5b565b9150506108e3565b50909392505050565b60005473ffffffffffffffffffffffffffffffffffffffff16331461098657600080fd5b600780547fffffffffffffffffffffffff00000000000000000000000000000000000000001673ffffffffffffffffffffffffffffffffffffffff92909216919091179055565b60148281600482815481106109e4576109e46118f5565b600091825260209091206002600390920201015463ffffffff161015610a0957600080fd5b600084815260056020526040902054849073ffffffffffffffffffffffffffffffffffffffff163314610a3b57600080fd5b60008581526005602052604090205473ffffffffffffffffffffffffffffffffffffffff163314610a6b57600080fd5b8360048681548110610a7f57610a7f6118f5565b9060005260206000209060030201600101819055505050505050565b600083815260056020526040902054839073ffffffffffffffffffffffffffffffffffffffff163314610acd57600080fd5b600060048581548110610ae257610ae26118f5565b9060005260206000209060030201905060025484610b009190611ac2565b935060006002858360010154610b169190611ad6565b610b209190611ae9565b6040517f6b6974747900000000000000000000000000000000000000000000000000000060208201529091506025016040516020818303038152906040528051906020012084604051602001610b769190611afd565b6040516020818303038152906040528051906020012003610bb457610b9c606482611ac2565b610ba69082611b19565b610bb1906063611ad6565b90505b610bf36040518060400160405280600681526020017f4e6f4e616d65000000000000000000000000000000000000000000000000000081525082611129565b610bfc8261134c565b505050505050565b60005473ffffffffffffffffffffffffffffffffffffffff163314610c2857600080fd5b6000805460405173ffffffffffffffffffffffffffffffffffffffff909116907f8be0079c531659141344cd1fd0a4f28419497f9722a3daafe3b4186f6b6457e0908390a3600080547fffffffffffffffffffffffff0000000000000000000000000000000000000000169055565b3360009081526006602052604090205415610cb157600080fd5b6000610cbc8261137e565b9050610cc9606482611ac2565b610cd39082611b19565b905061086d8282611129565b6002838160048281548110610cf657610cf66118f5565b600091825260209091206002600390920201015463ffffffff161015610d1b57600080fd5b600085815260056020526040902054859073ffffffffffffffffffffffffffffffffffffffff163314610d4d57600080fd5b60008681526005602052604090205473ffffffffffffffffffffffffffffffffffffffff163314610d7d57600080fd5b848460048881548110610d9257610d926118f5565b90600052602060002090600302016000019182610db0929190611b72565b50505050505050565b60005473ffffffffffffffffffffffffffffffffffffffff163314610ddd57600080fd5b600855565b600082815260056020526040902054829073ffffffffffffffffffffffffffffffffffffffff163314610e1457600080fd5b600060048481548110610e2957610e296118f5565b90600052602060002090600302019050600060048481548110610e4e57610e4e6118f5565b906000526020600020906003020190506000610e6a60646113c2565b9050600a548111610f765760028301805468010000000000000000900461ffff16906008610e9783611c8d565b825461ffff9182166101009390930a92830291909202199091161790555060028301805463ffffffff16906000610ecd83611953565b825463ffffffff9182166101009390930a92830291909202199091161790555060028201805461ffff6a01000000000000000000009091041690600a610f1283611c8d565b91906101000a81548161ffff021916908361ffff16021790555050610f718683600101546040518060400160405280600681526020017f7a6f6d6269650000000000000000000000000000000000000000000000000000815250610a9b565b610bfc565b6002830180546a0100000000000000000000900461ffff1690600a610f9a83611c8d565b91906101000a81548161ffff021916908361ffff1602179055505081600201600881819054906101000a900461ffff1680929190610fd790611c8d565b91906101000a81548161ffff021916908361ffff16021790555050610bfc8361134c565b60005473ffffffffffffffffffffffffffffffffffffffff16331461101f57600080fd5b61102881611448565b50565b73ffffffffffffffffffffffffffffffffffffffff821660009081526006602052604090205461105c9060016114f5565b73ffffffffffffffffffffffffffffffffffffffff8316600090815260066020526040808220929092553381522054611096906001611514565b336000908152600660209081526040808320939093558382526005905281812080547fffffffffffffffffffffffff00000000000000000000000000000000000000001673ffffffffffffffffffffffffffffffffffffffff8681169182179092559251849392918716917fddf252ad1be2c89b69c2b068fc378daa952ba7f163c4a11628f55a4df523b3ef91a4505050565b6000600354426111399190611ad6565b6040805160c08101825285815260208101859052600191810182905263ffffffff8316606082015260006080820181905260a08201819052600480549384018155905280519293509182916003027f8a35acfbc15ff81a39ae7d344fd709f28e8600b4aa8c65c6b64bfe7fe36bd19b019081906111b69082611ca4565b5060208201516001808301919091556040830151600290920180546060850151608086015160a09096015161ffff9081166a0100000000000000000000027fffffffffffffffffffffffffffffffffffffffff0000ffffffffffffffffffff919097166801000000000000000002167fffffffffffffffffffffffffffffffffffffffff00000000ffffffffffffffff63ffffffff928316640100000000027fffffffffffffffffffffffffffffffffffffffffffffffff000000000000000090941692909616919091179190911793909316929092179290921790556004546000916112a291611b19565b600081815260056020908152604080832080547fffffffffffffffffffffffff00000000000000000000000000000000000000001633908117909155835260069091529020549091506112f69060016114f5565b336000908152600660205260409081902091909155517f88f026aacbbecc90c18411df4b1185fd8d9be2470f1962f192bf84a27d0704b79061133d90839088908890611dbe565b60405180910390a15050505050565b6003546113599042611ad6565b8160020160046101000a81548163ffffffff021916908363ffffffff16021790555050565b600080826040516020016113929190611afd565b6040516020818303038152906040528051906020012060001c9050600254816113bb9190611ac2565b9392505050565b60098054600091826113d383611a5b565b9091555050600954604080514260208201527fffffffffffffffffffffffffffffffffffffffff0000000000000000000000003360601b1691810191909152605481019190915282906074016040516020818303038152906040528051906020012060001c6114429190611ac2565b92915050565b73ffffffffffffffffffffffffffffffffffffffff811661146857600080fd5b6000805460405173ffffffffffffffffffffffffffffffffffffffff808516939216917f8be0079c531659141344cd1fd0a4f28419497f9722a3daafe3b4186f6b6457e091a3600080547fffffffffffffffffffffffff00000000000000000000000000000000000000001673ffffffffffffffffffffffffffffffffffffffff92909216919091179055565b6000806115028385611ad6565b9050838110156113bb576113bb611de7565b60008282111561152657611526611de7565b6113bb8284611b19565b803573ffffffffffffffffffffffffffffffffffffffff8116811461155457600080fd5b919050565b6000806040838503121561156c57600080fd5b61157583611530565b946020939093013593505050565b60006020828403121561159557600080fd5b5035919050565b600080604083850312156115af57600080fd5b50508035926020909101359150565b60005b838110156115d95781810151838201526020016115c1565b50506000910152565b600081518084526115fa8160208601602086016115be565b601f017fffffffffffffffffffffffffffffffffffffffffffffffffffffffffffffffe0169290920160200192915050565b60c08152600061163f60c08301896115e2565b60208301979097525063ffffffff948516604082015292909316606083015261ffff908116608083015290911660a090910152919050565b60008060006060848603121561168c57600080fd5b61169584611530565b92506116a360208501611530565b9150604084013590509250925092565b6000602082840312156116c557600080fd5b6113bb82611530565b6020808252825182820181905260009190848201906040850190845b81811015611706578351835292840192918401916001016116ea565b50909695505050505050565b7f4e487b7100000000000000000000000000000000000000000000000000000000600052604160045260246000fd5b600082601f83011261175257600080fd5b813567ffffffffffffffff8082111561176d5761176d611712565b604051601f83017fffffffffffffffffffffffffffffffffffffffffffffffffffffffffffffffe0908116603f011681019082821181831017156117b3576117b3611712565b816040528381528660208588010111156117cc57600080fd5b836020870160208301376000602085830101528094505050505092915050565b60008060006060848603121561180157600080fd5b8335925060208401359150604084013567ffffffffffffffff81111561182657600080fd5b61183286828701611741565b9150509250925092565b60006020828403121561184e57600080fd5b813567ffffffffffffffff81111561186557600080fd5b61187184828501611741565b949350505050565b60008060006040848603121561188e57600080fd5b83359250602084013567ffffffffffffffff808211156118ad57600080fd5b818601915086601f8301126118c157600080fd5b8135818111156118d057600080fd5b8760208285010111156118e257600080fd5b6020830194508093505050509250925092565b7f4e487b7100000000000000000000000000000000000000000000000000000000600052603260045260246000fd5b7f4e487b7100000000000000000000000000000000000000000000000000000000600052601160045260246000fd5b600063ffffffff80831681810361196c5761196c611924565b6001019392505050565b8051801515811461155457600080fd5b6000806000806000806000806000806101408b8d0312156119a657600080fd5b6119af8b611976565b99506119bd60208c01611976565b985060408b0151975060608b0151965060808b0151955060a08b0151945060c08b0151935060e08b015192506101008b015191506101208b015190509295989b9194979a5092959850565b600181811c90821680611a1c57607f821691505b602082108103611a55577f4e487b7100000000000000000000000000000000000000000000000000000000600052602260045260246000fd5b50919050565b60007fffffffffffffffffffffffffffffffffffffffffffffffffffffffffffffffff8203611a8c57611a8c611924565b5060010190565b7f4e487b7100000000000000000000000000000000000000000000000000000000600052601260045260246000fd5b600082611ad157611ad1611a93565b500690565b8082018082111561144257611442611924565b600082611af857611af8611a93565b500490565b60008251611b0f8184602087016115be565b9190910192915050565b8181038181111561144257611442611924565b601f8211156106b757600081815260208120601f850160051c81016020861015611b535750805b601f850160051c820191505b81811015610bfc57828155600101611b5f565b67ffffffffffffffff831115611b8a57611b8a611712565b611b9e83611b988354611a08565b83611b2c565b6000601f841160018114611bf05760008515611bba5750838201355b7fffffffffffffffffffffffffffffffffffffffffffffffffffffffffffffffff600387901b1c1916600186901b178355611c86565b6000838152602090207fffffffffffffffffffffffffffffffffffffffffffffffffffffffffffffffe0861690835b82811015611c3f5786850135825560209485019460019092019101611c1f565b5086821015611c7a577fffffffffffffffffffffffffffffffffffffffffffffffffffffffffffffffff60f88860031b161c19848701351681555b505060018560011b0183555b5050505050565b600061ffff80831681810361196c5761196c611924565b815167ffffffffffffffff811115611cbe57611cbe611712565b611cd281611ccc8454611a08565b84611b2c565b602080601f831160018114611d255760008415611cef5750858301515b7fffffffffffffffffffffffffffffffffffffffffffffffffffffffffffffffff600386901b1c1916600185901b178555610bfc565b6000858152602081207fffffffffffffffffffffffffffffffffffffffffffffffffffffffffffffffe08616915b82811015611d7257888601518255948401946001909101908401611d53565b5085821015611dae57878501517fffffffffffffffffffffffffffffffffffffffffffffffffffffffffffffffff600388901b60f8161c191681555b5050505050600190811b01905550565b838152606060208201526000611dd760608301856115e2565b9050826040830152949350505050565b7f4e487b7100000000000000000000000000000000000000000000000000000000600052600160045260246000fdfea264697066735822122082a23b5fe0e753465ce593ba8fd7b15396dfb88ec484c6d9a08797ee7cc628cd64736f6c63430008120033",
  "linkReferences": {},
  "deployedLinkReferences": {}
}