{
  "_format": "hh-sol-artifact-1",
  "contractName": "NFTTigon",
  "sourceName": "contracts/NFTTigon.sol",
  "abi": [
    {
      "inputs": [
        {
          "internalType": "string",
          "name": "_name",
          "type": "string"
        },
        {
          "internalType": "string",
          "name": "_symbol",
          "type": "string"
        }
      ],
      "stateMutability": "nonpayable",
      "type": "constructor"
    },
    {
      "anonymous": false,
      "inputs": [
        {
          "indexed": true,
          "internalType": "address",
          "name": "owner",
          "type": "address"
        },
        {
          "indexed": true,
          "internalType": "address",
          "name": "approved",
          "type": "address"
        },
        {
          "indexed": true,
          "internalType": "uint256",
          "name": "tokenId",
          "type": "uint256"
        }
      ],
      "name": "Approval",
      "type": "event"
    },
    {
      "anonymous": false,
      "inputs": [
        {
          "indexed": true,
          "internalType": "address",
          "name": "owner",
          "type": "address"
        },
        {
          "indexed": true,
          "internalType": "address",
          "name": "operator",
          "type": "address"
        },
        {
          "indexed": false,
          "internalType": "bool",
          "name": "approved",
          "type": "bool"
        }
      ],
      "name": "ApprovalForAll",
      "type": "event"
    },
    {
      "anonymous": false,
      "inputs": [
        {
          "indexed": true,
          "internalType": "address",
          "name": "previousOwner",
          "type": "address"
        },
        {
          "indexed": true,
          "internalType": "address",
          "name": "newOwner",
          "type": "address"
        }
      ],
      "name": "OwnershipTransferred",
      "type": "event"
    },
    {
      "anonymous": false,
      "inputs": [
        {
          "indexed": true,
          "internalType": "address",
          "name": "from",
          "type": "address"
        },
        {
          "indexed": true,
          "internalType": "address",
          "name": "to",
          "type": "address"
        },
        {
          "indexed": true,
          "internalType": "uint256",
          "name": "tokenId",
          "type": "uint256"
        }
      ],
      "name": "Transfer",
      "type": "event"
    },
    {
      "inputs": [
        {
          "internalType": "address",
          "name": "to",
          "type": "address"
        },
        {
          "internalType": "uint256",
          "name": "tokenId",
          "type": "uint256"
        }
      ],
      "name": "approve",
      "outputs": [],
      "stateMutability": "nonpayable",
      "type": "function"
    },
    {
      "inputs": [
        {
          "internalType": "address",
          "name": "owner",
          "type": "address"
        }
      ],
      "name": "balanceOf",
      "outputs": [
        {
          "internalType": "uint256",
          "name": "",
          "type": "uint256"
        }
      ],
      "stateMutability": "view",
      "type": "function"
    },
    {
      "inputs": [],
      "name": "contract_owner",
      "outputs": [
        {
          "internalType": "address",
          "name": "",
          "type": "address"
        }
      ],
      "stateMutability": "view",
      "type": "function"
    },
    {
      "inputs": [
        {
          "internalType": "uint256",
          "name": "tokenId",
          "type": "uint256"
        }
      ],
      "name": "getApproved",
      "outputs": [
        {
          "internalType": "address",
          "name": "",
          "type": "address"
        }
      ],
      "stateMutability": "view",
      "type": "function"
    },
    {
      "inputs": [
        {
          "internalType": "address",
          "name": "owner",
          "type": "address"
        },
        {
          "internalType": "address",
          "name": "operator",
          "type": "address"
        }
      ],
      "name": "isApprovedForAll",
      "outputs": [
        {
          "internalType": "bool",
          "name": "",
          "type": "bool"
        }
      ],
      "stateMutability": "view",
      "type": "function"
    },
    {
      "inputs": [
        {
          "internalType": "string",
          "name": "_name",
          "type": "string"
        },
        {
          "internalType": "uint256",
          "name": "_cost",
          "type": "uint256"
        }
      ],
      "name": "list",
      "outputs": [],
      "stateMutability": "nonpayable",
      "type": "function"
    },
    {
      "inputs": [],
      "name": "name",
      "outputs": [
        {
          "internalType": "string",
          "name": "",
          "type": "string"
        }
      ],
      "stateMutability": "view",
      "type": "function"
    },
    {
      "inputs": [],
      "name": "owner",
      "outputs": [
        {
          "internalType": "address",
          "name": "",
          "type": "address"
        }
      ],
      "stateMutability": "view",
      "type": "function"
    },
    {
      "inputs": [
        {
          "internalType": "uint256",
          "name": "tokenId",
          "type": "uint256"
        }
      ],
      "name": "ownerOf",
      "outputs": [
        {
          "internalType": "address",
          "name": "",
          "type": "address"
        }
      ],
      "stateMutability": "view",
      "type": "function"
    },
    {
      "inputs": [],
      "name": "renounceOwnership",
      "outputs": [],
      "stateMutability": "nonpayable",
      "type": "function"
    },
    {
      "inputs": [
        {
          "internalType": "address",
          "name": "from",
          "type": "address"
        },
        {
          "internalType": "address",
          "name": "to",
          "type": "address"
        },
        {
          "internalType": "uint256",
          "name": "tokenId",
          "type": "uint256"
        }
      ],
      "name": "safeTransferFrom",
      "outputs": [],
      "stateMutability": "nonpayable",
      "type": "function"
    },
    {
      "inputs": [
        {
          "internalType": "address",
          "name": "from",
          "type": "address"
        },
        {
          "internalType": "address",
          "name": "to",
          "type": "address"
        },
        {
          "internalType": "uint256",
          "name": "tokenId",
          "type": "uint256"
        },
        {
          "internalType": "bytes",
          "name": "data",
          "type": "bytes"
        }
      ],
      "name": "safeTransferFrom",
      "outputs": [],
      "stateMutability": "nonpayable",
      "type": "function"
    },
    {
      "inputs": [
        {
          "internalType": "address",
          "name": "operator",
          "type": "address"
        },
        {
          "internalType": "bool",
          "name": "approved",
          "type": "bool"
        }
      ],
      "name": "setApprovalForAll",
      "outputs": [],
      "stateMutability": "nonpayable",
      "type": "function"
    },
    {
      "inputs": [
        {
          "internalType": "bytes4",
          "name": "interfaceId",
          "type": "bytes4"
        }
      ],
      "name": "supportsInterface",
      "outputs": [
        {
          "internalType": "bool",
          "name": "",
          "type": "bool"
        }
      ],
      "stateMutability": "view",
      "type": "function"
    },
    {
      "inputs": [],
      "name": "symbol",
      "outputs": [
        {
          "internalType": "string",
          "name": "",
          "type": "string"
        }
      ],
      "stateMutability": "view",
      "type": "function"
    },
    {
      "inputs": [
        {
          "internalType": "uint256",
          "name": "tokenId",
          "type": "uint256"
        }
      ],
      "name": "tokenURI",
      "outputs": [
        {
          "internalType": "string",
          "name": "",
          "type": "string"
        }
      ],
      "stateMutability": "view",
      "type": "function"
    },
    {
      "inputs": [
        {
          "internalType": "address",
          "name": "from",
          "type": "address"
        },
        {
          "internalType": "address",
          "name": "to",
          "type": "address"
        },
        {
          "internalType": "uint256",
          "name": "tokenId",
          "type": "uint256"
        }
      ],
      "name": "transferFrom",
      "outputs": [],
      "stateMutability": "nonpayable",
      "type": "function"
    },
    {
      "inputs": [
        {
          "internalType": "address",
          "name": "newOwner",
          "type": "address"
        }
      ],
      "name": "transferOwnership",
      "outputs": [],
      "stateMutability": "nonpayable",
      "type": "function"
    }
  ],
  "bytecode": "0x60806040523480156200001157600080fd5b5060405162001c5038038062001c508339810160408190526200003491620001a5565b818160006200004483826200029e565b5060016200005382826200029e565b505050620000706200006a6200008a60201b60201c565b6200008e565b5050600780546001600160a01b031916331790556200036a565b3390565b600680546001600160a01b038381166001600160a01b0319831681179093556040519116919082907f8be0079c531659141344cd1fd0a4f28419497f9722a3daafe3b4186f6b6457e090600090a35050565b634e487b7160e01b600052604160045260246000fd5b600082601f8301126200010857600080fd5b81516001600160401b0380821115620001255762000125620000e0565b604051601f8301601f19908116603f01168101908282118183101715620001505762000150620000e0565b816040528381526020925086838588010111156200016d57600080fd5b600091505b8382101562000191578582018301518183018401529082019062000172565b600093810190920192909252949350505050565b60008060408385031215620001b957600080fd5b82516001600160401b0380821115620001d157600080fd5b620001df86838701620000f6565b93506020850151915080821115620001f657600080fd5b506200020585828601620000f6565b9150509250929050565b600181811c908216806200022457607f821691505b6020821081036200024557634e487b7160e01b600052602260045260246000fd5b50919050565b601f8211156200029957600081815260208120601f850160051c81016020861015620002745750805b601f850160051c820191505b81811015620002955782815560010162000280565b5050505b505050565b81516001600160401b03811115620002ba57620002ba620000e0565b620002d281620002cb84546200020f565b846200024b565b602080601f8311600181146200030a5760008415620002f15750858301515b600019600386901b1c1916600185901b17855562000295565b600085815260208120601f198616915b828110156200033b578886015182559484019460019091019084016200031a565b50858210156200035a5787850151600019600388901b60f8161c191681555b5050505050600190811b01905550565b6118d6806200037a6000396000f3fe608060405234801561001057600080fd5b50600436106101365760003560e01c806370a08231116100b2578063a22cb46511610081578063c87b56dd11610066578063c87b56dd146102a5578063e985e9c5146102b8578063f2fde38b1461030157600080fd5b8063a22cb4651461027f578063b88d4fde1461029257600080fd5b806370a0823114610230578063715018a6146102515780638da5cb5b1461025957806395d89b411461027757600080fd5b806323b872dd1161010957806342842e0e116100ee57806342842e0e146101f85780634a878dfa1461020b5780636352211e1461021d57600080fd5b806323b872dd146101c5578063384f58eb146101d857600080fd5b806301ffc9a71461013b57806306fdde0314610163578063081812fc14610178578063095ea7b3146101b0575b600080fd5b61014e610149366004611450565b610314565b60405190151581526020015b60405180910390f35b61016b6103f9565b60405161015a91906114db565b61018b6101863660046114ee565b61048b565b60405173ffffffffffffffffffffffffffffffffffffffff909116815260200161015a565b6101c36101be366004611530565b6104bf565b005b6101c36101d336600461155a565b61061c565b60075461018b9073ffffffffffffffffffffffffffffffffffffffff1681565b6101c361020636600461155a565b6106a3565b6101c3610219366004611659565b5050565b61018b61022b3660046114ee565b6106be565b61024361023e3660046116b2565b610730565b60405190815260200161015a565b6101c36107e4565b60065473ffffffffffffffffffffffffffffffffffffffff1661018b565b61016b6107f8565b6101c361028d3660046116cd565b610807565b6101c36102a0366004611709565b610812565b61016b6102b33660046114ee565b6108a0565b61014e6102c6366004611785565b73ffffffffffffffffffffffffffffffffffffffff918216600090815260056020908152604080832093909416825291909152205460ff1690565b6101c361030f3660046116b2565b610914565b60007fffffffff0000000000000000000000000000000000000000000000000000000082167f80ac58cd0000000000000000000000000000000000000000000000000000000014806103a757507fffffffff0000000000000000000000000000000000000000000000000000000082167f5b5e139f00000000000000000000000000000000000000000000000000000000145b806103f357507f01ffc9a7000000000000000000000000000000000000000000000000000000007fffffffff000000000000000000000000000000000000000000000000000000008316145b92915050565b606060008054610408906117b8565b80601f0160208091040260200160405190810160405280929190818152602001828054610434906117b8565b80156104815780601f1061045657610100808354040283529160200191610481565b820191906000526020600020905b81548152906001019060200180831161046457829003601f168201915b5050505050905090565b6000610496826109b1565b5060009081526004602052604090205473ffffffffffffffffffffffffffffffffffffffff1690565b60006104ca826106be565b90508073ffffffffffffffffffffffffffffffffffffffff168373ffffffffffffffffffffffffffffffffffffffff16036105725760405162461bcd60e51b815260206004820152602160248201527f4552433732313a20617070726f76616c20746f2063757272656e74206f776e6560448201527f720000000000000000000000000000000000000000000000000000000000000060648201526084015b60405180910390fd5b3373ffffffffffffffffffffffffffffffffffffffff8216148061059b575061059b81336102c6565b61060d5760405162461bcd60e51b815260206004820152603d60248201527f4552433732313a20617070726f76652063616c6c6572206973206e6f7420746f60448201527f6b656e206f776e6572206f7220617070726f76656420666f7220616c6c0000006064820152608401610569565b6106178383610a22565b505050565b6106263382610ac2565b6106985760405162461bcd60e51b815260206004820152602d60248201527f4552433732313a2063616c6c6572206973206e6f7420746f6b656e206f776e6560448201527f72206f7220617070726f766564000000000000000000000000000000000000006064820152608401610569565b610617838383610b82565b61061783838360405180602001604052806000815250610812565b60008181526002602052604081205473ffffffffffffffffffffffffffffffffffffffff16806103f35760405162461bcd60e51b815260206004820152601860248201527f4552433732313a20696e76616c696420746f6b656e20494400000000000000006044820152606401610569565b600073ffffffffffffffffffffffffffffffffffffffff82166107bb5760405162461bcd60e51b815260206004820152602960248201527f4552433732313a2061646472657373207a65726f206973206e6f74206120766160448201527f6c6964206f776e657200000000000000000000000000000000000000000000006064820152608401610569565b5073ffffffffffffffffffffffffffffffffffffffff1660009081526003602052604090205490565b6107ec610e2f565b6107f66000610e96565b565b606060018054610408906117b8565b610219338383610f0d565b61081c3383610ac2565b61088e5760405162461bcd60e51b815260206004820152602d60248201527f4552433732313a2063616c6c6572206973206e6f7420746f6b656e206f776e6560448201527f72206f7220617070726f766564000000000000000000000000000000000000006064820152608401610569565b61089a84848484611020565b50505050565b60606108ab826109b1565b60006108c260408051602081019091526000815290565b905060008151116108e2576040518060200160405280600081525061090d565b806108ec846110a9565b6040516020016108fd92919061180b565b6040516020818303038152906040525b9392505050565b61091c610e2f565b73ffffffffffffffffffffffffffffffffffffffff81166109a55760405162461bcd60e51b815260206004820152602660248201527f4f776e61626c653a206e6577206f776e657220697320746865207a65726f206160448201527f64647265737300000000000000000000000000000000000000000000000000006064820152608401610569565b6109ae81610e96565b50565b60008181526002602052604090205473ffffffffffffffffffffffffffffffffffffffff166109ae5760405162461bcd60e51b815260206004820152601860248201527f4552433732313a20696e76616c696420746f6b656e20494400000000000000006044820152606401610569565b600081815260046020526040902080547fffffffffffffffffffffffff00000000000000000000000000000000000000001673ffffffffffffffffffffffffffffffffffffffff84169081179091558190610a7c826106be565b73ffffffffffffffffffffffffffffffffffffffff167f8c5be1e5ebec7d5bd14f71427d1e84f3dd0314c0f7b2291e5b200ac8c7c3b92560405160405180910390a45050565b600080610ace836106be565b90508073ffffffffffffffffffffffffffffffffffffffff168473ffffffffffffffffffffffffffffffffffffffff161480610b3c575073ffffffffffffffffffffffffffffffffffffffff80821660009081526005602090815260408083209388168352929052205460ff165b80610b7a57508373ffffffffffffffffffffffffffffffffffffffff16610b628461048b565b73ffffffffffffffffffffffffffffffffffffffff16145b949350505050565b8273ffffffffffffffffffffffffffffffffffffffff16610ba2826106be565b73ffffffffffffffffffffffffffffffffffffffff1614610c2b5760405162461bcd60e51b815260206004820152602560248201527f4552433732313a207472616e736665722066726f6d20696e636f72726563742060448201527f6f776e65720000000000000000000000000000000000000000000000000000006064820152608401610569565b73ffffffffffffffffffffffffffffffffffffffff8216610cb35760405162461bcd60e51b8152602060048201526024808201527f4552433732313a207472616e7366657220746f20746865207a65726f2061646460448201527f72657373000000000000000000000000000000000000000000000000000000006064820152608401610569565b8273ffffffffffffffffffffffffffffffffffffffff16610cd3826106be565b73ffffffffffffffffffffffffffffffffffffffff1614610d5c5760405162461bcd60e51b815260206004820152602560248201527f4552433732313a207472616e736665722066726f6d20696e636f72726563742060448201527f6f776e65720000000000000000000000000000000000000000000000000000006064820152608401610569565b600081815260046020908152604080832080547fffffffffffffffffffffffff000000000000000000000000000000000000000090811690915573ffffffffffffffffffffffffffffffffffffffff8781168086526003855283862080547fffffffffffffffffffffffffffffffffffffffffffffffffffffffffffffffff01905590871680865283862080546001019055868652600290945282852080549092168417909155905184937fddf252ad1be2c89b69c2b068fc378daa952ba7f163c4a11628f55a4df523b3ef91a4505050565b60065473ffffffffffffffffffffffffffffffffffffffff1633146107f65760405162461bcd60e51b815260206004820181905260248201527f4f776e61626c653a2063616c6c6572206973206e6f7420746865206f776e65726044820152606401610569565b6006805473ffffffffffffffffffffffffffffffffffffffff8381167fffffffffffffffffffffffff0000000000000000000000000000000000000000831681179093556040519116919082907f8be0079c531659141344cd1fd0a4f28419497f9722a3daafe3b4186f6b6457e090600090a35050565b8173ffffffffffffffffffffffffffffffffffffffff168373ffffffffffffffffffffffffffffffffffffffff1603610f885760405162461bcd60e51b815260206004820152601960248201527f4552433732313a20617070726f766520746f2063616c6c6572000000000000006044820152606401610569565b73ffffffffffffffffffffffffffffffffffffffff83811660008181526005602090815260408083209487168084529482529182902080547fffffffffffffffffffffffffffffffffffffffffffffffffffffffffffffff001686151590811790915591519182527f17307eab39ab6107e8899845ad3d59bd9653f200f220920489ca2b5937696c31910160405180910390a3505050565b61102b848484610b82565b61103784848484611167565b61089a5760405162461bcd60e51b815260206004820152603260248201527f4552433732313a207472616e7366657220746f206e6f6e20455243373231526560448201527f63656976657220696d706c656d656e74657200000000000000000000000000006064820152608401610569565b606060006110b683611340565b600101905060008167ffffffffffffffff8111156110d6576110d6611596565b6040519080825280601f01601f191660200182016040528015611100576020820181803683370190505b5090508181016020015b7fffffffffffffffffffffffffffffffffffffffffffffffffffffffffffffffff017f3031323334353637383961626364656600000000000000000000000000000000600a86061a8153600a850494508461110a57509392505050565b600073ffffffffffffffffffffffffffffffffffffffff84163b15611335576040517f150b7a0200000000000000000000000000000000000000000000000000000000815273ffffffffffffffffffffffffffffffffffffffff85169063150b7a02906111de90339089908890889060040161183a565b6020604051808303816000875af1925050508015611237575060408051601f3d9081017fffffffffffffffffffffffffffffffffffffffffffffffffffffffffffffffe016820190925261123491810190611883565b60015b6112ea573d808015611265576040519150601f19603f3d011682016040523d82523d6000602084013e61126a565b606091505b5080516000036112e25760405162461bcd60e51b815260206004820152603260248201527f4552433732313a207472616e7366657220746f206e6f6e20455243373231526560448201527f63656976657220696d706c656d656e74657200000000000000000000000000006064820152608401610569565b805181602001fd5b7fffffffff00000000000000000000000000000000000000000000000000000000167f150b7a0200000000000000000000000000000000000000000000000000000000149050610b7a565b506001949350505050565b6000807a184f03e93ff9f4daa797ed6e38ed64bf6a1f0100000000000000008310611389577a184f03e93ff9f4daa797ed6e38ed64bf6a1f010000000000000000830492506040015b6d04ee2d6d415b85acef810000000083106113b5576d04ee2d6d415b85acef8100000000830492506020015b662386f26fc1000083106113d357662386f26fc10000830492506010015b6305f5e10083106113eb576305f5e100830492506008015b61271083106113ff57612710830492506004015b60648310611411576064830492506002015b600a83106103f35760010192915050565b7fffffffff00000000000000000000000000000000000000000000000000000000811681146109ae57600080fd5b60006020828403121561146257600080fd5b813561090d81611422565b60005b83811015611488578181015183820152602001611470565b50506000910152565b600081518084526114a981602086016020860161146d565b601f017fffffffffffffffffffffffffffffffffffffffffffffffffffffffffffffffe0169290920160200192915050565b60208152600061090d6020830184611491565b60006020828403121561150057600080fd5b5035919050565b803573ffffffffffffffffffffffffffffffffffffffff8116811461152b57600080fd5b919050565b6000806040838503121561154357600080fd5b61154c83611507565b946020939093013593505050565b60008060006060848603121561156f57600080fd5b61157884611507565b925061158660208501611507565b9150604084013590509250925092565b7f4e487b7100000000000000000000000000000000000000000000000000000000600052604160045260246000fd5b600067ffffffffffffffff808411156115e0576115e0611596565b604051601f85017fffffffffffffffffffffffffffffffffffffffffffffffffffffffffffffffe0908116603f0116810190828211818310171561162657611626611596565b8160405280935085815286868601111561163f57600080fd5b858560208301376000602087830101525050509392505050565b6000806040838503121561166c57600080fd5b823567ffffffffffffffff81111561168357600080fd5b8301601f8101851361169457600080fd5b6116a3858235602084016115c5565b95602094909401359450505050565b6000602082840312156116c457600080fd5b61090d82611507565b600080604083850312156116e057600080fd5b6116e983611507565b9150602083013580151581146116fe57600080fd5b809150509250929050565b6000806000806080858703121561171f57600080fd5b61172885611507565b935061173660208601611507565b925060408501359150606085013567ffffffffffffffff81111561175957600080fd5b8501601f8101871361176a57600080fd5b611779878235602084016115c5565b91505092959194509250565b6000806040838503121561179857600080fd5b6117a183611507565b91506117af60208401611507565b90509250929050565b600181811c908216806117cc57607f821691505b602082108103611805577f4e487b7100000000000000000000000000000000000000000000000000000000600052602260045260246000fd5b50919050565b6000835161181d81846020880161146d565b83519083019061183181836020880161146d565b01949350505050565b600073ffffffffffffffffffffffffffffffffffffffff8087168352808616602084015250836040830152608060608301526118796080830184611491565b9695505050505050565b60006020828403121561189557600080fd5b815161090d8161142256fea26469706673582212200090b51d40decc78c212715cd7d892fb4271257fa4b6437a4a0f13bf21229d9164736f6c63430008120033",
  "linkReferences": {},
  "deployedLinkReferences": {}
}